:100B2D004B54504D2E4B3132422D4E686F6D203946
:010B3D0000B7
:100AEF000F084C6170205472696E68204E68756EE5
:100AFF00671017CFCECDCCCBCAC9C8C7C6C5C4C324
:030B0F00C2C1C0A0
:070AC800120B3E7F327E009D
:100ACF00E4FDFCC3ED9FEC9E5015E4FBFA0BBB005D
:0F0ADF00010AEB64054A70F50DBD00010C80E4BF
:010AEE0022E5
:0E0B3E008F9075B040120ACBC2B6120ACF22B9
:050B1300120ACF7F3043
:100B18008F9075B0607FF47E01120ACFC2B67F3223
:050B28001E120ACF229D
:100A8700E4F590F5B07F987E3A120B137F947E11B0
:100A9700120B137F2C7E01120B137F8A7E02120A20
:100AA700CF7F38120AC87F0C120AC87F01120AC802
:100AB7007F06120AC87F80120B3E7F327E00020A31
:010AC700CF5F
:1008000078297C007D007BFF7A0B792D7E007F119B
:030810001209D5F5
:10081300E4F53AF53BF53CF53DF53EF53FF540F59E
:1008230041120A877F01120B3E7F80120B3E74290F
:10083300253BF8E6FF600D120B18053BE53B70EE18
:10084300053A80EA7F107E27120ACF75270EE4F55A
:100853003CF53D74172541F8E6FF120B3E8527282A
:10086300D3E5286480948D50277408253DF8E6FF6E
:10087300120B187F647E00120ACF053DE53D70021E
:10088300053CE5277006E528640D6017052880D030
:100893000541E541700205401527C3E527648094AF
:1008A3008050ABE5276003020813E528640D60035D
:1008B300020813E53D453C70030208137F01120B48
:1008C3003E7FC0120B3E853D27C3E527648094829B
:1008D3004026AF27EF3395E0FEC3740F9FF53FE447
:1008E3009EF53E7408253FF8E6FF120B187FE87E5D
:1008F30003120ACF152780D1E53D153D70B5153C90
:0209030080B1C1
:030000000209FBF7
:0C09FB00787FE4F6D8FD758141020A42C5
:10090500E709F608DFFA8046E709F208DFFA803ED4
:1009150088828C83E709F0A3DFFA8032E309F608C1
:10092500DFFA8078E309F208DFFA807088828C8329
:10093500E309F0A3DFFA806489828A83E0A3F608DD
:10094500DFFA805889828A83E0A3F208DFFA804CB7
:1009550080D280FA80C680D4806980F2803380108E
:1009650080A680EA809A80A880DA80E280CA8033F7
:1009750089828A83ECFAE493A3C8C582C8CCC5836F
:10098500CCF0A3C8C582C8CCC583CCDFE9DEE7803F
:100995000D89828A83E493A3F608DFF9ECFAA9F0BE
:1009A500EDFB2289828A83ECFAE0A3C8C582C8CC14
:1009B500C583CCF0A3C8C582C8CCC583CCDFEADE2D
:1009C500E880DB89828A83E493A3F208DFF980CC8F
:1009D50088F0EF60010E4E60C388F0ED2402B40488
:1009E5000050B9F582EB2402B4040050AF2323452F
:0609F500822390095573F6
:100A0700020800E493A3F8E493A34003F68001F2FD
:100A170008DFF48029E493A3F85407240CC8C333F0
:100A2700C4540F4420C8834004F456800146F6DFBF
:100A3700E4800B0102040810204080900AEFE47E56
:100A4700019360BCA3FF543F30E509541FFEE493B4
:100A5700A360010ECF54C025E060A840B8E493A37B
:100A6700FAE493A3F8E493A3C8C582C8CAC583CAA6
:100A7700F0A3C8C582C8CAC583CADFE9DEE780BE5E
:010B120000E2
:00000001FF
